{
  "_format": "hh-sol-artifact-1",
  "contractName": "Arbazaar",
  "sourceName": "src/Arbazaar.sol",
  "abi": [
    {
      "inputs": [
        {
          "internalType": "address payable",
          "name": "_developerWallet",
          "type": "address"
        },
        {
          "internalType": "address",
          "name": "_buckTokenAddress",
          "type": "address"
        }
      ],
      "stateMutability": "nonpayable",
      "type": "constructor"
    },
    {
      "anonymous": false,
      "inputs": [
        {
          "indexed": true,
          "internalType": "uint256",
          "name": "listingKey",
          "type": "uint256"
        },
        {
          "indexed": true,
          "internalType": "address",
          "name": "collection",
          "type": "address"
        },
        {
          "indexed": true,
          "internalType": "uint256",
          "name": "tokenId",
          "type": "uint256"
        },
        {
          "indexed": false,
          "internalType": "address",
          "name": "seller",
          "type": "address"
        },
        {
          "indexed": false,
          "internalType": "address",
          "name": "owner",
          "type": "address"
        },
        {
          "indexed": false,
          "internalType": "uint256",
          "name": "price",
          "type": "uint256"
        },
        {
          "indexed": false,
          "internalType": "uint256",
          "name": "precision",
          "type": "uint256"
        },
        {
          "indexed": false,
          "internalType": "bool",
          "name": "sold",
          "type": "bool"
        },
        {
          "indexed": false,
          "internalType": "bool",
          "name": "cancelled",
          "type": "bool"
        },
        {
          "indexed": false,
          "internalType": "uint256",
          "name": "date",
          "type": "uint256"
        }
      ],
      "name": "ListingAdded",
      "type": "event"
    },
    {
      "anonymous": false,
      "inputs": [
        {
          "indexed": true,
          "internalType": "uint256",
          "name": "listingKey",
          "type": "uint256"
        },
        {
          "indexed": true,
          "internalType": "address",
          "name": "collection",
          "type": "address"
        },
        {
          "indexed": true,
          "internalType": "uint256",
          "name": "tokenId",
          "type": "uint256"
        },
        {
          "indexed": false,
          "internalType": "address",
          "name": "seller",
          "type": "address"
        },
        {
          "indexed": false,
          "internalType": "address",
          "name": "owner",
          "type": "address"
        },
        {
          "indexed": false,
          "internalType": "uint256",
          "name": "price",
          "type": "uint256"
        },
        {
          "indexed": false,
          "internalType": "uint256",
          "name": "precision",
          "type": "uint256"
        },
        {
          "indexed": false,
          "internalType": "bool",
          "name": "sold",
          "type": "bool"
        },
        {
          "indexed": false,
          "internalType": "bool",
          "name": "cancelled",
          "type": "bool"
        },
        {
          "indexed": false,
          "internalType": "uint256",
          "name": "date",
          "type": "uint256"
        }
      ],
      "name": "ListingRemoved",
      "type": "event"
    },
    {
      "anonymous": false,
      "inputs": [
        {
          "indexed": true,
          "internalType": "uint256",
          "name": "offerKey",
          "type": "uint256"
        },
        {
          "indexed": true,
          "internalType": "address",
          "name": "collection",
          "type": "address"
        },
        {
          "indexed": true,
          "internalType": "uint256",
          "name": "tokenId",
          "type": "uint256"
        },
        {
          "indexed": false,
          "internalType": "address",
          "name": "bidder",
          "type": "address"
        },
        {
          "indexed": false,
          "internalType": "uint256",
          "name": "price",
          "type": "uint256"
        },
        {
          "indexed": false,
          "internalType": "uint256",
          "name": "precision",
          "type": "uint256"
        },
        {
          "indexed": false,
          "internalType": "bool",
          "name": "sold",
          "type": "bool"
        },
        {
          "indexed": false,
          "internalType": "bool",
          "name": "cancelled",
          "type": "bool"
        },
        {
          "indexed": false,
          "internalType": "uint256",
          "name": "date",
          "type": "uint256"
        }
      ],
      "name": "OfferAdded",
      "type": "event"
    },
    {
      "anonymous": false,
      "inputs": [
        {
          "indexed": true,
          "internalType": "uint256",
          "name": "offerKey",
          "type": "uint256"
        },
        {
          "indexed": true,
          "internalType": "address",
          "name": "collection",
          "type": "address"
        },
        {
          "indexed": true,
          "internalType": "uint256",
          "name": "tokenId",
          "type": "uint256"
        },
        {
          "indexed": false,
          "internalType": "address",
          "name": "bidder",
          "type": "address"
        },
        {
          "indexed": false,
          "internalType": "uint256",
          "name": "price",
          "type": "uint256"
        },
        {
          "indexed": false,
          "internalType": "uint256",
          "name": "precision",
          "type": "uint256"
        },
        {
          "indexed": false,
          "internalType": "bool",
          "name": "sold",
          "type": "bool"
        },
        {
          "indexed": false,
          "internalType": "bool",
          "name": "cancelled",
          "type": "bool"
        },
        {
          "indexed": false,
          "internalType": "uint256",
          "name": "date",
          "type": "uint256"
        }
      ],
      "name": "OfferRemoved",
      "type": "event"
    },
    {
      "anonymous": false,
      "inputs": [
        {
          "indexed": true,
          "internalType": "address",
          "name": "previousOwner",
          "type": "address"
        },
        {
          "indexed": true,
          "internalType": "address",
          "name": "newOwner",
          "type": "address"
        }
      ],
      "name": "OwnershipTransferred",
      "type": "event"
    },
    {
      "inputs": [
        {
          "internalType": "address",
          "name": "_collection",
          "type": "address"
        },
        {
          "internalType": "uint256",
          "name": "_offerKey",
          "type": "uint256"
        }
      ],
      "name": "acceptOffer",
      "outputs": [],
      "stateMutability": "payable",
      "type": "function"
    },
    {
      "inputs": [
        {
          "internalType": "address",
          "name": "_collection",
          "type": "address"
        },
        {
          "internalType": "uint256",
          "name": "_tokenId",
          "type": "uint256"
        },
        {
          "internalType": "uint256",
          "name": "_price",
          "type": "uint256"
        }
      ],
      "name": "addListing",
      "outputs": [],
      "stateMutability": "payable",
      "type": "function"
    },
    {
      "inputs": [
        {
          "internalType": "address",
          "name": "_collection",
          "type": "address"
        },
        {
          "internalType": "uint256",
          "name": "_tokenId",
          "type": "uint256"
        },
        {
          "internalType": "uint256",
          "name": "_price",
          "type": "uint256"
        }
      ],
      "name": "addOffer",
      "outputs": [],
      "stateMutability": "payable",
      "type": "function"
    },
    {
      "inputs": [
        {
          "internalType": "uint256",
          "name": "_amount",
          "type": "uint256"
        }
      ],
      "name": "addStake",
      "outputs": [],
      "stateMutability": "nonpayable",
      "type": "function"
    },
    {
      "inputs": [],
      "name": "buckToken",
      "outputs": [
        {
          "internalType": "contract IERC20",
          "name": "",
          "type": "address"
        }
      ],
      "stateMutability": "view",
      "type": "function"
    },
    {
      "inputs": [],
      "name": "claimRewards",
      "outputs": [],
      "stateMutability": "payable",
      "type": "function"
    },
    {
      "inputs": [
        {
          "internalType": "address",
          "name": "",
          "type": "address"
        }
      ],
      "name": "claimedRewards",
      "outputs": [
        {
          "internalType": "uint256",
          "name": "",
          "type": "uint256"
        }
      ],
      "stateMutability": "view",
      "type": "function"
    },
    {
      "inputs": [
        {
          "internalType": "address",
          "name": "",
          "type": "address"
        }
      ],
      "name": "collectionVolume",
      "outputs": [
        {
          "internalType": "uint256",
          "name": "",
          "type": "uint256"
        }
      ],
      "stateMutability": "view",
      "type": "function"
    },
    {
      "inputs": [
        {
          "internalType": "address",
          "name": "_user",
          "type": "address"
        }
      ],
      "name": "getClaimedRewardsByUser",
      "outputs": [
        {
          "internalType": "uint256",
          "name": "",
          "type": "uint256"
        }
      ],
      "stateMutability": "view",
      "type": "function"
    },
    {
      "inputs": [],
      "name": "getDeployerAddress",
      "outputs": [
        {
          "internalType": "address payable",
          "name": "",
          "type": "address"
        }
      ],
      "stateMutability": "view",
      "type": "function"
    },
    {
      "inputs": [],
      "name": "getDeveloperWallet",
      "outputs": [
        {
          "internalType": "address payable",
          "name": "",
          "type": "address"
        }
      ],
      "stateMutability": "view",
      "type": "function"
    },
    {
      "inputs": [],
      "name": "getFeesTotal",
      "outputs": [
        {
          "internalType": "uint256",
          "name": "",
          "type": "uint256"
        }
      ],
      "stateMutability": "view",
      "type": "function"
    },
    {
      "inputs": [],
      "name": "getRewardsTotal",
      "outputs": [
        {
          "internalType": "uint256",
          "name": "",
          "type": "uint256"
        }
      ],
      "stateMutability": "view",
      "type": "function"
    },
    {
      "inputs": [
        {
          "internalType": "address",
          "name": "_user",
          "type": "address"
        }
      ],
      "name": "getStakeByUser",
      "outputs": [
        {
          "internalType": "uint256",
          "name": "",
          "type": "uint256"
        }
      ],
      "stateMutability": "view",
      "type": "function"
    },
    {
      "inputs": [],
      "name": "getStakeTotal",
      "outputs": [
        {
          "internalType": "uint256",
          "name": "",
          "type": "uint256"
        }
      ],
      "stateMutability": "view",
      "type": "function"
    },
    {
      "inputs": [],
      "name": "getTokenAddress",
      "outputs": [
        {
          "internalType": "address",
          "name": "",
          "type": "address"
        }
      ],
      "stateMutability": "view",
      "type": "function"
    },
    {
      "inputs": [
        {
          "internalType": "address",
          "name": "_user",
          "type": "address"
        }
      ],
      "name": "getUnclaimedRewardsByUser",
      "outputs": [
        {
          "internalType": "uint256",
          "name": "",
          "type": "uint256"
        }
      ],
      "stateMutability": "view",
      "type": "function"
    },
    {
      "inputs": [],
      "name": "getUnclaimedRewardsTotal",
      "outputs": [
        {
          "internalType": "uint256",
          "name": "",
          "type": "uint256"
        }
      ],
      "stateMutability": "view",
      "type": "function"
    },
    {
      "inputs": [
        {
          "internalType": "address",
          "name": "_collection",
          "type": "address"
        }
      ],
      "name": "getVolumeByCollection",
      "outputs": [
        {
          "internalType": "uint256",
          "name": "",
          "type": "uint256"
        }
      ],
      "stateMutability": "view",
      "type": "function"
    },
    {
      "inputs": [],
      "name": "getVolumeTotal",
      "outputs": [
        {
          "internalType": "uint256",
          "name": "",
          "type": "uint256"
        }
      ],
      "stateMutability": "view",
      "type": "function"
    },
    {
      "inputs": [
        {
          "internalType": "address",
          "name": "",
          "type": "address"
        }
      ],
      "name": "isStaker",
      "outputs": [
        {
          "internalType": "bool",
          "name": "",
          "type": "bool"
        }
      ],
      "stateMutability": "view",
      "type": "function"
    },
    {
      "inputs": [
        {
          "internalType": "address",
          "name": "",
          "type": "address"
        }
      ],
      "name": "isStaking",
      "outputs": [
        {
          "internalType": "bool",
          "name": "",
          "type": "bool"
        }
      ],
      "stateMutability": "view",
      "type": "function"
    },
    {
      "inputs": [
        {
          "internalType": "uint256",
          "name": "_x",
          "type": "uint256"
        },
        {
          "internalType": "uint256",
          "name": "_y",
          "type": "uint256"
        },
        {
          "internalType": "uint256",
          "name": "_z",
          "type": "uint256"
        }
      ],
      "name": "mulDiv",
      "outputs": [
        {
          "internalType": "uint256",
          "name": "",
          "type": "uint256"
        }
      ],
      "stateMutability": "pure",
      "type": "function"
    },
    {
      "inputs": [],
      "name": "owner",
      "outputs": [
        {
          "internalType": "address",
          "name": "",
          "type": "address"
        }
      ],
      "stateMutability": "view",
      "type": "function"
    },
    {
      "inputs": [
        {
          "internalType": "address",
          "name": "_collection",
          "type": "address"
        },
        {
          "internalType": "uint256",
          "name": "_listingKey",
          "type": "uint256"
        }
      ],
      "name": "purchaseListing",
      "outputs": [],
      "stateMutability": "payable",
      "type": "function"
    },
    {
      "inputs": [
        {
          "internalType": "uint256",
          "name": "_listingKey",
          "type": "uint256"
        }
      ],
      "name": "removeListing",
      "outputs": [],
      "stateMutability": "payable",
      "type": "function"
    },
    {
      "inputs": [
        {
          "internalType": "uint256",
          "name": "_offerKey",
          "type": "uint256"
        }
      ],
      "name": "removeOffer",
      "outputs": [],
      "stateMutability": "payable",
      "type": "function"
    },
    {
      "inputs": [
        {
          "internalType": "uint256",
          "name": "_amount",
          "type": "uint256"
        }
      ],
      "name": "removeStake",
      "outputs": [],
      "stateMutability": "nonpayable",
      "type": "function"
    },
    {
      "inputs": [],
      "name": "renounceOwnership",
      "outputs": [],
      "stateMutability": "nonpayable",
      "type": "function"
    },
    {
      "inputs": [],
      "name": "retrieveListingsActive",
      "outputs": [
        {
          "components": [
            {
              "internalType": "uint256",
              "name": "listingKey",
              "type": "uint256"
            },
            {
              "internalType": "address",
              "name": "collection",
              "type": "address"
            },
            {
              "internalType": "uint256",
              "name": "tokenId",
              "type": "uint256"
            },
            {
              "internalType": "address payable",
              "name": "seller",
              "type": "address"
            },
            {
              "internalType": "address payable",
              "name": "owner",
              "type": "address"
            },
            {
              "internalType": "uint256",
              "name": "price",
              "type": "uint256"
            },
            {
              "internalType": "uint256",
              "name": "precision",
              "type": "uint256"
            },
            {
              "internalType": "bool",
              "name": "sold",
              "type": "bool"
            },
            {
              "internalType": "bool",
              "name": "cancelled",
              "type": "bool"
            },
            {
              "internalType": "uint256",
              "name": "date",
              "type": "uint256"
            }
          ],
          "internalType": "struct Arbazaar.Listing[]",
          "name": "",
          "type": "tuple[]"
        }
      ],
      "stateMutability": "view",
      "type": "function"
    },
    {
      "inputs": [],
      "name": "retrieveListingsAll",
      "outputs": [
        {
          "components": [
            {
              "internalType": "uint256",
              "name": "listingKey",
              "type": "uint256"
            },
            {
              "internalType": "address",
              "name": "collection",
              "type": "address"
            },
            {
              "internalType": "uint256",
              "name": "tokenId",
              "type": "uint256"
            },
            {
              "internalType": "address payable",
              "name": "seller",
              "type": "address"
            },
            {
              "internalType": "address payable",
              "name": "owner",
              "type": "address"
            },
            {
              "internalType": "uint256",
              "name": "price",
              "type": "uint256"
            },
            {
              "internalType": "uint256",
              "name": "precision",
              "type": "uint256"
            },
            {
              "internalType": "bool",
              "name": "sold",
              "type": "bool"
            },
            {
              "internalType": "bool",
              "name": "cancelled",
              "type": "bool"
            },
            {
              "internalType": "uint256",
              "name": "date",
              "type": "uint256"
            }
          ],
          "internalType": "struct Arbazaar.Listing[]",
          "name": "",
          "type": "tuple[]"
        }
      ],
      "stateMutability": "view",
      "type": "function"
    },
    {
      "inputs": [
        {
          "internalType": "address",
          "name": "_account",
          "type": "address"
        }
      ],
      "name": "retrieveListingsByAccount",
      "outputs": [
        {
          "components": [
            {
              "internalType": "uint256",
              "name": "listingKey",
              "type": "uint256"
            },
            {
              "internalType": "address",
              "name": "collection",
              "type": "address"
            },
            {
              "internalType": "uint256",
              "name": "tokenId",
              "type": "uint256"
            },
            {
              "internalType": "address payable",
              "name": "seller",
              "type": "address"
            },
            {
              "internalType": "address payable",
              "name": "owner",
              "type": "address"
            },
            {
              "internalType": "uint256",
              "name": "price",
              "type": "uint256"
            },
            {
              "internalType": "uint256",
              "name": "precision",
              "type": "uint256"
            },
            {
              "internalType": "bool",
              "name": "sold",
              "type": "bool"
            },
            {
              "internalType": "bool",
              "name": "cancelled",
              "type": "bool"
            },
            {
              "internalType": "uint256",
              "name": "date",
              "type": "uint256"
            }
          ],
          "internalType": "struct Arbazaar.Listing[]",
          "name": "",
          "type": "tuple[]"
        }
      ],
      "stateMutability": "view",
      "type": "function"
    },
    {
      "inputs": [
        {
          "internalType": "address",
          "name": "_collection",
          "type": "address"
        }
      ],
      "name": "retrieveListingsByCollection",
      "outputs": [
        {
          "components": [
            {
              "internalType": "uint256",
              "name": "listingKey",
              "type": "uint256"
            },
            {
              "internalType": "address",
              "name": "collection",
              "type": "address"
            },
            {
              "internalType": "uint256",
              "name": "tokenId",
              "type": "uint256"
            },
            {
              "internalType": "address payable",
              "name": "seller",
              "type": "address"
            },
            {
              "internalType": "address payable",
              "name": "owner",
              "type": "address"
            },
            {
              "internalType": "uint256",
              "name": "price",
              "type": "uint256"
            },
            {
              "internalType": "uint256",
              "name": "precision",
              "type": "uint256"
            },
            {
              "internalType": "bool",
              "name": "sold",
              "type": "bool"
            },
            {
              "internalType": "bool",
              "name": "cancelled",
              "type": "bool"
            },
            {
              "internalType": "uint256",
              "name": "date",
              "type": "uint256"
            }
          ],
          "internalType": "struct Arbazaar.Listing[]",
          "name": "",
          "type": "tuple[]"
        }
      ],
      "stateMutability": "view",
      "type": "function"
    },
    {
      "inputs": [
        {
          "internalType": "address",
          "name": "_collection",
          "type": "address"
        },
        {
          "internalType": "uint256",
          "name": "_tokenId",
          "type": "uint256"
        }
      ],
      "name": "retrieveListingsByItem",
      "outputs": [
        {
          "components": [
            {
              "internalType": "uint256",
              "name": "listingKey",
              "type": "uint256"
            },
            {
              "internalType": "address",
              "name": "collection",
              "type": "address"
            },
            {
              "internalType": "uint256",
              "name": "tokenId",
              "type": "uint256"
            },
            {
              "internalType": "address payable",
              "name": "seller",
              "type": "address"
            },
            {
              "internalType": "address payable",
              "name": "owner",
              "type": "address"
            },
            {
              "internalType": "uint256",
              "name": "price",
              "type": "uint256"
            },
            {
              "internalType": "uint256",
              "name": "precision",
              "type": "uint256"
            },
            {
              "internalType": "bool",
              "name": "sold",
              "type": "bool"
            },
            {
              "internalType": "bool",
              "name": "cancelled",
              "type": "bool"
            },
            {
              "internalType": "uint256",
              "name": "date",
              "type": "uint256"
            }
          ],
          "internalType": "struct Arbazaar.Listing[]",
          "name": "",
          "type": "tuple[]"
        }
      ],
      "stateMutability": "view",
      "type": "function"
    },
    {
      "inputs": [],
      "name": "retrieveListingsCancelled",
      "outputs": [
        {
          "components": [
            {
              "internalType": "uint256",
              "name": "listingKey",
              "type": "uint256"
            },
            {
              "internalType": "address",
              "name": "collection",
              "type": "address"
            },
            {
              "internalType": "uint256",
              "name": "tokenId",
              "type": "uint256"
            },
            {
              "internalType": "address payable",
              "name": "seller",
              "type": "address"
            },
            {
              "internalType": "address payable",
              "name": "owner",
              "type": "address"
            },
            {
              "internalType": "uint256",
              "name": "price",
              "type": "uint256"
            },
            {
              "internalType": "uint256",
              "name": "precision",
              "type": "uint256"
            },
            {
              "internalType": "bool",
              "name": "sold",
              "type": "bool"
            },
            {
              "internalType": "bool",
              "name": "cancelled",
              "type": "bool"
            },
            {
              "internalType": "uint256",
              "name": "date",
              "type": "uint256"
            }
          ],
          "internalType": "struct Arbazaar.Listing[]",
          "name": "",
          "type": "tuple[]"
        }
      ],
      "stateMutability": "view",
      "type": "function"
    },
    {
      "inputs": [
        {
          "internalType": "uint256",
          "name": "_fromBlock",
          "type": "uint256"
        }
      ],
      "name": "retrieveListingsFromBlock",
      "outputs": [
        {
          "components": [
            {
              "internalType": "uint256",
              "name": "listingKey",
              "type": "uint256"
            },
            {
              "internalType": "address",
              "name": "collection",
              "type": "address"
            },
            {
              "internalType": "uint256",
              "name": "tokenId",
              "type": "uint256"
            },
            {
              "internalType": "address payable",
              "name": "seller",
              "type": "address"
            },
            {
              "internalType": "address payable",
              "name": "owner",
              "type": "address"
            },
            {
              "internalType": "uint256",
              "name": "price",
              "type": "uint256"
            },
            {
              "internalType": "uint256",
              "name": "precision",
              "type": "uint256"
            },
            {
              "internalType": "bool",
              "name": "sold",
              "type": "bool"
            },
            {
              "internalType": "bool",
              "name": "cancelled",
              "type": "bool"
            },
            {
              "internalType": "uint256",
              "name": "date",
              "type": "uint256"
            }
          ],
          "internalType": "struct Arbazaar.Listing[]",
          "name": "",
          "type": "tuple[]"
        }
      ],
      "stateMutability": "view",
      "type": "function"
    },
    {
      "inputs": [],
      "name": "retrieveListingsSold",
      "outputs": [
        {
          "components": [
            {
              "internalType": "uint256",
              "name": "listingKey",
              "type": "uint256"
            },
            {
              "internalType": "address",
              "name": "collection",
              "type": "address"
            },
            {
              "internalType": "uint256",
              "name": "tokenId",
              "type": "uint256"
            },
            {
              "internalType": "address payable",
              "name": "seller",
              "type": "address"
            },
            {
              "internalType": "address payable",
              "name": "owner",
              "type": "address"
            },
            {
              "internalType": "uint256",
              "name": "price",
              "type": "uint256"
            },
            {
              "internalType": "uint256",
              "name": "precision",
              "type": "uint256"
            },
            {
              "internalType": "bool",
              "name": "sold",
              "type": "bool"
            },
            {
              "internalType": "bool",
              "name": "cancelled",
              "type": "bool"
            },
            {
              "internalType": "uint256",
              "name": "date",
              "type": "uint256"
            }
          ],
          "internalType": "struct Arbazaar.Listing[]",
          "name": "",
          "type": "tuple[]"
        }
      ],
      "stateMutability": "view",
      "type": "function"
    },
    {
      "inputs": [],
      "name": "retrieveOffersActive",
      "outputs": [
        {
          "components": [
            {
              "internalType": "uint256",
              "name": "offerKey",
              "type": "uint256"
            },
            {
              "internalType": "address",
              "name": "collection",
              "type": "address"
            },
            {
              "internalType": "uint256",
              "name": "tokenId",
              "type": "uint256"
            },
            {
              "internalType": "address payable",
              "name": "bidder",
              "type": "address"
            },
            {
              "internalType": "uint256",
              "name": "price",
              "type": "uint256"
            },
            {
              "internalType": "uint256",
              "name": "precision",
              "type": "uint256"
            },
            {
              "internalType": "bool",
              "name": "sold",
              "type": "bool"
            },
            {
              "internalType": "bool",
              "name": "cancelled",
              "type": "bool"
            },
            {
              "internalType": "uint256",
              "name": "date",
              "type": "uint256"
            }
          ],
          "internalType": "struct Arbazaar.Offer[]",
          "name": "",
          "type": "tuple[]"
        }
      ],
      "stateMutability": "view",
      "type": "function"
    },
    {
      "inputs": [],
      "name": "retrieveOffersAll",
      "outputs": [
        {
          "components": [
            {
              "internalType": "uint256",
              "name": "offerKey",
              "type": "uint256"
            },
            {
              "internalType": "address",
              "name": "collection",
              "type": "address"
            },
            {
              "internalType": "uint256",
              "name": "tokenId",
              "type": "uint256"
            },
            {
              "internalType": "address payable",
              "name": "bidder",
              "type": "address"
            },
            {
              "internalType": "uint256",
              "name": "price",
              "type": "uint256"
            },
            {
              "internalType": "uint256",
              "name": "precision",
              "type": "uint256"
            },
            {
              "internalType": "bool",
              "name": "sold",
              "type": "bool"
            },
            {
              "internalType": "bool",
              "name": "cancelled",
              "type": "bool"
            },
            {
              "internalType": "uint256",
              "name": "date",
              "type": "uint256"
            }
          ],
          "internalType": "struct Arbazaar.Offer[]",
          "name": "",
          "type": "tuple[]"
        }
      ],
      "stateMutability": "view",
      "type": "function"
    },
    {
      "inputs": [
        {
          "internalType": "address",
          "name": "_account",
          "type": "address"
        }
      ],
      "name": "retrieveOffersByAccount",
      "outputs": [
        {
          "components": [
            {
              "internalType": "uint256",
              "name": "offerKey",
              "type": "uint256"
            },
            {
              "internalType": "address",
              "name": "collection",
              "type": "address"
            },
            {
              "internalType": "uint256",
              "name": "tokenId",
              "type": "uint256"
            },
            {
              "internalType": "address payable",
              "name": "bidder",
              "type": "address"
            },
            {
              "internalType": "uint256",
              "name": "price",
              "type": "uint256"
            },
            {
              "internalType": "uint256",
              "name": "precision",
              "type": "uint256"
            },
            {
              "internalType": "bool",
              "name": "sold",
              "type": "bool"
            },
            {
              "internalType": "bool",
              "name": "cancelled",
              "type": "bool"
            },
            {
              "internalType": "uint256",
              "name": "date",
              "type": "uint256"
            }
          ],
          "internalType": "struct Arbazaar.Offer[]",
          "name": "",
          "type": "tuple[]"
        }
      ],
      "stateMutability": "view",
      "type": "function"
    },
    {
      "inputs": [
        {
          "internalType": "address",
          "name": "_collection",
          "type": "address"
        }
      ],
      "name": "retrieveOffersByCollection",
      "outputs": [
        {
          "components": [
            {
              "internalType": "uint256",
              "name": "offerKey",
              "type": "uint256"
            },
            {
              "internalType": "address",
              "name": "collection",
              "type": "address"
            },
            {
              "internalType": "uint256",
              "name": "tokenId",
              "type": "uint256"
            },
            {
              "internalType": "address payable",
              "name": "bidder",
              "type": "address"
            },
            {
              "internalType": "uint256",
              "name": "price",
              "type": "uint256"
            },
            {
              "internalType": "uint256",
              "name": "precision",
              "type": "uint256"
            },
            {
              "internalType": "bool",
              "name": "sold",
              "type": "bool"
            },
            {
              "internalType": "bool",
              "name": "cancelled",
              "type": "bool"
            },
            {
              "internalType": "uint256",
              "name": "date",
              "type": "uint256"
            }
          ],
          "internalType": "struct Arbazaar.Offer[]",
          "name": "",
          "type": "tuple[]"
        }
      ],
      "stateMutability": "view",
      "type": "function"
    },
    {
      "inputs": [
        {
          "internalType": "address",
          "name": "_collection",
          "type": "address"
        },
        {
          "internalType": "uint256",
          "name": "_tokenId",
          "type": "uint256"
        }
      ],
      "name": "retrieveOffersByItem",
      "outputs": [
        {
          "components": [
            {
              "internalType": "uint256",
              "name": "offerKey",
              "type": "uint256"
            },
            {
              "internalType": "address",
              "name": "collection",
              "type": "address"
            },
            {
              "internalType": "uint256",
              "name": "tokenId",
              "type": "uint256"
            },
            {
              "internalType": "address payable",
              "name": "bidder",
              "type": "address"
            },
            {
              "internalType": "uint256",
              "name": "price",
              "type": "uint256"
            },
            {
              "internalType": "uint256",
              "name": "precision",
              "type": "uint256"
            },
            {
              "internalType": "bool",
              "name": "sold",
              "type": "bool"
            },
            {
              "internalType": "bool",
              "name": "cancelled",
              "type": "bool"
            },
            {
              "internalType": "uint256",
              "name": "date",
              "type": "uint256"
            }
          ],
          "internalType": "struct Arbazaar.Offer[]",
          "name": "",
          "type": "tuple[]"
        }
      ],
      "stateMutability": "view",
      "type": "function"
    },
    {
      "inputs": [],
      "name": "retrieveOffersCancelled",
      "outputs": [
        {
          "components": [
            {
              "internalType": "uint256",
              "name": "offerKey",
              "type": "uint256"
            },
            {
              "internalType": "address",
              "name": "collection",
              "type": "address"
            },
            {
              "internalType": "uint256",
              "name": "tokenId",
              "type": "uint256"
            },
            {
              "internalType": "address payable",
              "name": "bidder",
              "type": "address"
            },
            {
              "internalType": "uint256",
              "name": "price",
              "type": "uint256"
            },
            {
              "internalType": "uint256",
              "name": "precision",
              "type": "uint256"
            },
            {
              "internalType": "bool",
              "name": "sold",
              "type": "bool"
            },
            {
              "internalType": "bool",
              "name": "cancelled",
              "type": "bool"
            },
            {
              "internalType": "uint256",
              "name": "date",
              "type": "uint256"
            }
          ],
          "internalType": "struct Arbazaar.Offer[]",
          "name": "",
          "type": "tuple[]"
        }
      ],
      "stateMutability": "view",
      "type": "function"
    },
    {
      "inputs": [
        {
          "internalType": "uint256",
          "name": "_fromBlock",
          "type": "uint256"
        }
      ],
      "name": "retrieveOffersFromBlock",
      "outputs": [
        {
          "components": [
            {
              "internalType": "uint256",
              "name": "offerKey",
              "type": "uint256"
            },
            {
              "internalType": "address",
              "name": "collection",
              "type": "address"
            },
            {
              "internalType": "uint256",
              "name": "tokenId",
              "type": "uint256"
            },
            {
              "internalType": "address payable",
              "name": "bidder",
              "type": "address"
            },
            {
              "internalType": "uint256",
              "name": "price",
              "type": "uint256"
            },
            {
              "internalType": "uint256",
              "name": "precision",
              "type": "uint256"
            },
            {
              "internalType": "bool",
              "name": "sold",
              "type": "bool"
            },
            {
              "internalType": "bool",
              "name": "cancelled",
              "type": "bool"
            },
            {
              "internalType": "uint256",
              "name": "date",
              "type": "uint256"
            }
          ],
          "internalType": "struct Arbazaar.Offer[]",
          "name": "",
          "type": "tuple[]"
        }
      ],
      "stateMutability": "view",
      "type": "function"
    },
    {
      "inputs": [],
      "name": "retrieveOffersSold",
      "outputs": [
        {
          "components": [
            {
              "internalType": "uint256",
              "name": "offerKey",
              "type": "uint256"
            },
            {
              "internalType": "address",
              "name": "collection",
              "type": "address"
            },
            {
              "internalType": "uint256",
              "name": "tokenId",
              "type": "uint256"
            },
            {
              "internalType": "address payable",
              "name": "bidder",
              "type": "address"
            },
            {
              "internalType": "uint256",
              "name": "price",
              "type": "uint256"
            },
            {
              "internalType": "uint256",
              "name": "precision",
              "type": "uint256"
            },
            {
              "internalType": "bool",
              "name": "sold",
              "type": "bool"
            },
            {
              "internalType": "bool",
              "name": "cancelled",
              "type": "bool"
            },
            {
              "internalType": "uint256",
              "name": "date",
              "type": "uint256"
            }
          ],
          "internalType": "struct Arbazaar.Offer[]",
          "name": "",
          "type": "tuple[]"
        }
      ],
      "stateMutability": "view",
      "type": "function"
    },
    {
      "inputs": [],
      "name": "rewardsAll",
      "outputs": [
        {
          "internalType": "uint256",
          "name": "",
          "type": "uint256"
        }
      ],
      "stateMutability": "view",
      "type": "function"
    },
    {
      "inputs": [],
      "name": "rewardsUnclaimed",
      "outputs": [
        {
          "internalType": "uint256",
          "name": "",
          "type": "uint256"
        }
      ],
      "stateMutability": "view",
      "type": "function"
    },
    {
      "inputs": [
        {
          "internalType": "address",
          "name": "",
          "type": "address"
        }
      ],
      "name": "stake",
      "outputs": [
        {
          "internalType": "uint256",
          "name": "",
          "type": "uint256"
        }
      ],
      "stateMutability": "view",
      "type": "function"
    },
    {
      "inputs": [
        {
          "internalType": "uint256",
          "name": "",
          "type": "uint256"
        }
      ],
      "name": "stakers",
      "outputs": [
        {
          "internalType": "address",
          "name": "",
          "type": "address"
        }
      ],
      "stateMutability": "view",
      "type": "function"
    },
    {
      "inputs": [],
      "name": "tokens",
      "outputs": [
        {
          "internalType": "uint256",
          "name": "",
          "type": "uint256"
        }
      ],
      "stateMutability": "view",
      "type": "function"
    },
    {
      "inputs": [
        {
          "internalType": "address",
          "name": "newOwner",
          "type": "address"
        }
      ],
      "name": "transferOwnership",
      "outputs": [],
      "stateMutability": "nonpayable",
      "type": "function"
    },
    {
      "inputs": [
        {
          "internalType": "address",
          "name": "",
          "type": "address"
        }
      ],
      "name": "unclaimedRewards",
      "outputs": [
        {
          "internalType": "uint256",
          "name": "",
          "type": "uint256"
        }
      ],
      "stateMutability": "view",
      "type": "function"
    }
  ],
  "bytecode": "0x60806040523480156200001157600080fd5b506040516200503b3803806200503b8339810160408190526200003491620000dc565b6200003f336200008c565b6001805560058054336001600160a01b0319918216179091556006805482166001600160a01b03948516179055600780548216929093169182179092556008805490921617905562000133565b600080546001600160a01b038381166001600160a01b0319831681178455604051919092169283917f8be0079c531659141344cd1fd0a4f28419497f9722a3daafe3b4186f6b6457e09190a35050565b60008060408385031215620000ef578182fd5b8251620000fc816200011a565b60208401519092506200010f816200011a565b809150509250929050565b6001600160a01b03811681146200013057600080fd5b50565b614ef880620001436000396000f3fe6080604052600436106102ff5760003560e01c8063939624ab11610190578063a98ad1c9116100dc578063e81dc1c311610095578063f2fde38b1161006f578063f2fde38b146108ea578063f6d36ccb1461090a578063fd5e6dd11461091d578063fdbc2dee1461093d57600080fd5b8063e81dc1c3146108a0578063eb4f16b5146108b5578063f2cd8e30146108d557600080fd5b8063a98ad1c9146107f6578063aa9a09121461080b578063b1b9e78d1461082b578063b51320931461083e578063bd8343451461085e578063d3d935b01461088b57600080fd5b80639c506be311610149578063a3d5919111610123578063a3d591911461078e578063a445345b146107ae578063a7fc91b9146107ce578063a8f2ba7f146107e157600080fd5b80639c506be31461072d5780639d050d67146107635780639d63848a1461077857600080fd5b8063939624ab1461066d57806393b5de3a1461068d578063949813b8146106c357806395a0f9c7146106f05780639b917c9a146107035780639c4b2d9f1461071857600080fd5b806349eb376a1161024f5780636f1e8533116102085780637e082850116101e25780637e082850146105fa578063848856dc1461061a5780638a2fea9b1461062f5780638da5cb5b1461064f57600080fd5b80636f1e8533146105755780636f49712b146105b5578063715018a6146105e557600080fd5b806349eb376a146104c057806351dabbeb146104f657806356abf8d01461050b5780635735189e1461051e5780635a1c3ff0146105335780635b13ae081461056057600080fd5b80632a372327116102bc578063372500ab11610296578063372500ab1461045857806342bb4d851461046257806343bb55a214610477578063479ad4c3146104ad57600080fd5b80632a372327146103ff5780632c7f04071461042c57806332d6362f1461044257600080fd5b80630470d3ac1461030457806310fe9ae81461033b578063125b44431461035957806324ada2341461038657806324cc2866146103a657806326476204146103c4575b600080fd5b34801561031057600080fd5b506006546001600160a01b03165b6040516001600160a01b0390911681526020015b60405180910390f35b34801561034757600080fd5b506007546001600160a01b031661031e565b34801561036557600080fd5b50610379610374366004614ae1565b61095d565b6040516103329190614d0f565b34801561039257600080fd5b506103796103a1366004614aa2565b610bd4565b3480156103b257600080fd5b506005546001600160a01b031661031e565b3480156103d057600080fd5b506103f16103df366004614aa2565b600f6020526000908152604090205481565b604051908152602001610332565b34801561040b57600080fd5b506103f161041a366004614aa2565b60126020526000908152604090205481565b34801561043857600080fd5b506103f1600a5481565b34801561044e57600080fd5b506103f1600b5481565b610460610df2565b005b34801561046e57600080fd5b50610379610f47565b34801561048357600080fd5b506103f1610492366004614aa2565b6001600160a01b031660009081526012602052604090205490565b6104606104bb366004614b60565b6110bd565b3480156104cc57600080fd5b506103f16104db366004614aa2565b6001600160a01b03166000908152600f602052604090205490565b34801561050257600080fd5b50600b546103f1565b610460610519366004614b0c565b611251565b34801561052a57600080fd5b506009546103f1565b34801561053f57600080fd5b5061055361054e366004614aa2565b611512565b6040516103329190614c58565b34801561056c57600080fd5b50600a546103f1565b34801561058157600080fd5b506105a5610590366004614aa2565b60136020526000908152604090205460ff1681565b6040519015158152602001610332565b3480156105c157600080fd5b506105a56105d0366004614aa2565b60146020526000908152604090205460ff1681565b3480156105f157600080fd5b50610460611733565b34801561060657600080fd5b50610553610615366004614ae1565b611799565b34801561062657600080fd5b50610553611a10565b34801561063b57600080fd5b5061055361064a366004614b60565b611c2e565b34801561065b57600080fd5b506000546001600160a01b031661031e565b34801561067957600080fd5b50610460610688366004614b60565b611e25565b34801561069957600080fd5b506103f16106a8366004614aa2565b6001600160a01b031660009081526011602052604090205490565b3480156106cf57600080fd5b506103f16106de366004614aa2565b60106020526000908152604090205481565b6104606106fe366004614b60565b612029565b34801561070f57600080fd5b5061055361224a565b34801561072457600080fd5b506105536124b3565b34801561073957600080fd5b506103f1610748366004614aa2565b6001600160a01b031660009081526010602052604090205490565b34801561076f57600080fd5b5061037961262e565b34801561078457600080fd5b506103f160095481565b34801561079a57600080fd5b5060085461031e906001600160a01b031681565b3480156107ba57600080fd5b506103796107c9366004614b60565b612836565b6104606107dc366004614ae1565b612a20565b3480156107ed57600080fd5b50600e546103f1565b34801561080257600080fd5b50610379612f5c565b34801561081757600080fd5b506103f1610826366004614b90565b6131b8565b610460610839366004614ae1565b613259565b34801561084a57600080fd5b50610379610859366004614aa2565b61378b565b34801561086a57600080fd5b506103f1610879366004614aa2565b60116020526000908152604090205481565b34801561089757600080fd5b5061055361399f565b3480156108ac57600080fd5b50610379613ba8565b3480156108c157600080fd5b506104606108d0366004614b60565b613da4565b3480156108e157600080fd5b50600d546103f1565b3480156108f657600080fd5b50610460610905366004614aa2565b61407d565b610460610918366004614b0c565b614148565b34801561092957600080fd5b5061031e610938366004614b60565b61457e565b34801561094957600080fd5b50610553610958366004614aa2565b6145a8565b6060600061096a60045490565b905060008060005b83811015610a01576001600160a01b03871660166000610993846001614df0565b81526020810191909152604001600020600101546001600160a01b03161480156109dc575085601660006109c8846001614df0565b815260200190815260200160002060020154145b156109ef576109ec600184614df0565b92505b806109f981614e52565b915050610972565b506000826001600160401b03811115610a2a57634e487b7160e01b600052604160045260246000fd5b604051908082528060200260200182016040528015610a6357816020015b610a506149ce565b815260200190600190039081610a485790505b50905060005b84811015610bc7576001600160a01b03881660166000610a8a846001614df0565b81526020810191909152604001600020600101546001600160a01b0316148015610ad357508660166000610abf846001614df0565b815260200190815260200160002060020154145b15610bb5576000601681610ae8846001614df0565b815260208082019290925260409081016000208151610120810183528154815260018201546001600160a01b03908116948201949094526002820154928101929092526003810154909216606082015260048201546080820152600582015460a0820152600682015460ff808216151560c08401526101009182900416151560e0830152600783015490820152845191925090849086908110610b9b57634e487b7160e01b600052603260045260246000fd5b6020908102919091010152610bb1600185614df0565b9350505b80610bbf81614e52565b915050610a69565b5093505050505b92915050565b60606000610be160045490565b905060008060005b83811015610c4d576001600160a01b03861660166000610c0a846001614df0565b81526020810191909152604001600020600301546001600160a01b03161415610c3b57610c38600184614df0565b92505b80610c4581614e52565b915050610be9565b506000826001600160401b03811115610c7657634e487b7160e01b600052604160045260246000fd5b604051908082528060200260200182016040528015610caf57816020015b610c9c6149ce565b815260200190600190039081610c945790505b50905060005b84811015610de8576001600160a01b03871660166000610cd6846001614df0565b81526020810191909152604001600020600301546001600160a01b03161415610dd6576000601681610d09846001614df0565b815260208082019290925260409081016000208151610120810183528154815260018201546001600160a01b03908116948201949094526002820154928101929092526003810154909216606082015260048201546080820152600582015460a0820152600682015460ff808216151560c08401526101009182900416151560e0830152600783015490820152845191925090849086908110610dbc57634e487b7160e01b600052603260045260246000fd5b6020908102919091010152610dd2600185614df0565b9350505b80610de081614e52565b915050610cb5565b5095945050505050565b60026001541415610e1e5760405162461bcd60e51b8152600401610e1590614db9565b60405180910390fd5b600260019081553360009081526013602052604090205460ff16151514610eb95760405162461bcd60e51b815260206004820152604360248201527f596f75206d7573742063757272656e746c79206f776e206f722068617665207060448201527f726576696f75736c79206f776e65642061207374616b6520746f20646f20746860648201526234b99760e91b608482015260a401610e15565b3360008181526010602052604080822054905190929183156108fc02918491818181858888f19350505050158015610ef5573d6000803e3d6000fd5b50336000908152601060209081526040808320839055601190915281208054839290610f22908490614df0565b9250508190555080600b6000828254610f3b9190614e3b565b90915550506001805550565b60606000610f5460045490565b9050600080826001600160401b03811115610f7f57634e487b7160e01b600052604160045260246000fd5b604051908082528060200260200182016040528015610fb857816020015b610fa56149ce565b815260200190600190039081610f9d5790505b50905060005b838110156110b5576000601681610fd6846001614df0565b815260208082019290925260409081016000208151610120810183528154815260018201546001600160a01b03908116948201949094526002820154928101929092526003810154909216606082015260048201546080820152600582015460a0820152600682015460ff808216151560c08401526101009182900416151560e083015260078301549082015284519192509084908690811061108957634e487b7160e01b600052603260045260246000fd5b602090810291909101015261109f600185614df0565b93505080806110ad90614e52565b915050610fbe565b509392505050565b600260015414156110e05760405162461bcd60e51b8152600401610e1590614db9565b60026001556000818152601560205260409020600301546001600160a01b0316331461115e5760405162461bcd60e51b815260206004820152602760248201527f54686973206c697374696e67206973206e6f7420756e64657220796f757220636044820152663ab9ba37b23c9760c91b6064820152608401610e15565b600081815260156020526040902060070154610100900460ff16156111c55760405162461bcd60e51b815260206004820181905260248201527f54686973206c697374696e6720686173206265656e2063616e63656c6c65642e6044820152606401610e15565b60008181526015602052604080822060078101805461ff00191661010017905560028101546001828101546005840154600690940154945192956001600160a01b039091169487947f4d150fa99a69fdbc9d4ccb12ffa983654e39ce5e667b86cc8330737e0339af86946112429433948594929091904390614bdf565b60405180910390a45060018055565b600260015414156112745760405162461bcd60e51b8152600401610e1590614db9565b600260015566038d7ea4c680008110156112db5760405162461bcd60e51b815260206004820152602260248201527f4f6666657273206d757374206265206174206c6561737420302e303031204554604482015261241760f11b6064820152608401610e15565b8034146113505760405162461bcd60e51b815260206004820152603c60248201527f5468652076616c7565206f662074686973207472616e73616374696f6e206d7560448201527f7374206d617463682074686520616d6f756e74206f6666657265642e000000006064820152608401610e15565b61135e600480546001019055565b600061136960045490565b90506000611376836147c9565b90506000439050604051806101200160405280848152602001876001600160a01b03168152602001868152602001336001600160a01b0316815260200185815260200183815260200160001515815260200160001515815260200182815250601660008581526020019081526020016000206000820151816000015560208201518160010160006101000a8154816001600160a01b0302191690836001600160a01b031602179055506040820151816002015560608201518160030160006101000a8154816001600160a01b0302191690836001600160a01b031602179055506080820151816004015560a0820151816005015560c08201518160060160006101000a81548160ff02191690831515021790555060e08201518160060160016101000a81548160ff021916908315150217905550610100820151816007015590505084866001600160a01b0316847f39f6bd56de40508f2c92c1f439eb578d5c3d4cb23f1eacc002fec6acb1cdff66338887600080896040516114fe96959493929190614c21565b60405180910390a450506001805550505050565b6060600061151f60025490565b905060008060005b8381101561158b576001600160a01b03861660156000611548846001614df0565b81526020810191909152604001600020600301546001600160a01b0316141561157957611576600184614df0565b92505b8061158381614e52565b915050611527565b506000826001600160401b038111156115b457634e487b7160e01b600052604160045260246000fd5b6040519080825280602002602001820160405280156115ed57816020015b6115da614a30565b8152602001906001900390816115d25790505b50905060005b84811015610de8576001600160a01b03871660156000611614846001614df0565b81526020810191909152604001600020600301546001600160a01b03161415611721576000601581611647846001614df0565b815260208082019290925260409081016000208151610140810183528154815260018201546001600160a01b039081169482019490945260028201549281019290925260038101548316606083015260048101549092166080820152600582015460a0820152600682015460c0820152600782015460ff808216151560e08401526101009182900416151590820152600882015461012082015284519192509084908690811061170757634e487b7160e01b600052603260045260246000fd5b602090810291909101015261171d600185614df0565b9350505b8061172b81614e52565b9150506115f3565b6000546001600160a01b0316331461178d5760405162461bcd60e51b815260206004820181905260248201527f4f776e61626c653a2063616c6c6572206973206e6f7420746865206f776e65726044820152606401610e15565b611797600061482d565b565b606060006117a660025490565b905060008060005b8381101561183d576001600160a01b038716601560006117cf846001614df0565b81526020810191909152604001600020600101546001600160a01b031614801561181857508560156000611804846001614df0565b815260200190815260200160002060020154145b1561182b57611828600184614df0565b92505b8061183581614e52565b9150506117ae565b506000826001600160401b0381111561186657634e487b7160e01b600052604160045260246000fd5b60405190808252806020026020018201604052801561189f57816020015b61188c614a30565b8152602001906001900390816118845790505b50905060005b84811015610bc7576001600160a01b038816601560006118c6846001614df0565b81526020810191909152604001600020600101546001600160a01b031614801561190f575086601560006118fb846001614df0565b815260200190815260200160002060020154145b156119fe576000601581611924846001614df0565b815260208082019290925260409081016000208151610140810183528154815260018201546001600160a01b039081169482019490945260028201549281019290925260038101548316606083015260048101549092166080820152600582015460a0820152600682015460c0820152600782015460ff808216151560e0840152610100918290041615159082015260088201546101208201528451919250908490869081106119e457634e487b7160e01b600052603260045260246000fd5b60209081029190910101526119fa600185614df0565b9350505b80611a0881614e52565b9150506118a5565b60606000611a1d60025490565b905060008060005b83811015611a835760156000611a3c836001614df0565b815260208101919091526040016000206007015460ff61010090910416151560011415611a7157611a6e600184614df0565b92505b80611a7b81614e52565b915050611a25565b506000826001600160401b03811115611aac57634e487b7160e01b600052604160045260246000fd5b604051908082528060200260200182016040528015611ae557816020015b611ad2614a30565b815260200190600190039081611aca5790505b50905060005b84811015611c255760156000611b02836001614df0565b815260208101919091526040016000206007015460ff61010090910416151560011415611c13576000601581611b39846001614df0565b815260208082019290925260409081016000208151610140810183528154815260018201546001600160a01b039081169482019490945260028201549281019290925260038101548316606083015260048101549092166080820152600582015460a0820152600682015460c0820152600782015460ff808216151560e084015261010091829004161515908201526008820154610120820152845191925090849086908110611bf957634e487b7160e01b600052603260045260246000fd5b6020908102919091010152611c0f600185614df0565b9350505b80611c1d81614e52565b915050611aeb565b50949350505050565b60606000611c3b60025490565b905060008060005b83811015611c92578560156000611c5b846001614df0565b81526020019081526020016000206008015410611c8057611c7d600184614df0565b92505b80611c8a81614e52565b915050611c43565b506000826001600160401b03811115611cbb57634e487b7160e01b600052604160045260246000fd5b604051908082528060200260200182016040528015611cf457816020015b611ce1614a30565b815260200190600190039081611cd95790505b50905060005b84811015610de8578660156000611d12846001614df0565b81526020019081526020016000206008015410611e13576000601581611d39846001614df0565b815260208082019290925260409081016000208151610140810183528154815260018201546001600160a01b039081169482019490945260028201549281019290925260038101548316606083015260048101549092166080820152600582015460a0820152600682015460c0820152600782015460ff808216151560e084015261010091829004161515908201526008820154610120820152845191925090849086908110611df957634e487b7160e01b600052603260045260246000fd5b6020908102919091010152611e0f600185614df0565b9350505b80611e1d81614e52565b915050611cfa565b60026001541415611e485760405162461bcd60e51b8152600401610e1590614db9565b6002600155336000908152600f602052604090205480611ec95760405162461bcd60e51b815260206004820152603660248201527f596f75206d757374206f776e2061207374616b65206f66206174206c656173746044820152751037b732903a37b5b2b7103a37903237903a3434b99760511b6064820152608401610e15565b81811015611f3f5760405162461bcd60e51b815260206004820152603c60248201527f596f752063616e6e6f7420636c61696d206d6f726520746f6b656e732074686160448201527f6e207468652062616c616e6365206f6620796f7572207374616b652e000000006064820152608401610e15565b611f498282614e3b565b336000818152600f60205260409081902092909255600854915163a9059cbb60e01b81526004810191909152602481018490526001600160a01b039091169063a9059cbb90604401602060405180830381600087803b158015611fab57600080fd5b505af1158015611fbf573d6000803e3d6000fd5b505050506040513d601f19601f82011682018060405250810190611fe39190614b40565b50611fee8282614e3b565b61200a57336000908152601460205260409020805460ff191690555b816009600082825461201c9190614e3b565b9091555050600180555050565b6002600154141561204c5760405162461bcd60e51b8152600401610e1590614db9565b6002600155600081815260166020526040902060060154610100900460ff16156120b85760405162461bcd60e51b815260206004820152601e60248201527f54686973206f6666657220686173206265656e2063616e63656c6c65642e00006044820152606401610e15565b60008181526016602052604090206006015460ff161561211a5760405162461bcd60e51b815260206004820152601d60248201527f54686973206f6666657220686173206265656e2061636365707465642e0000006044820152606401610e15565b6000818152601660205260409020600301546001600160a01b031633146121915760405162461bcd60e51b815260206004820152602560248201527f54686973206f66666572206973206e6f7420756e64657220796f7572206375736044820152643a37b23c9760d91b6064820152608401610e15565b60008181526016602052604080822060068101805461ff001916610100179055600401549051339282156108fc02929190818181858888f193505050501580156121df573d6000803e3d6000fd5b5060008181526016602052604080822060028101546001808301546004840154600590940154945192956001600160a01b039091169487947f6c859ce1e4f15037b8ab6a3be01d616e3060c4d98599f4f6ee0a76435625cab494611242943394929392914390614c21565b6060600061225760025490565b905060008060005b838110156122e75760156000612276836001614df0565b815260208101919091526040016000206007015460ff161580156122c25750601560006122a4836001614df0565b8152602081019190915260400160002060070154610100900460ff16155b156122d5576122d2600184614df0565b92505b806122df81614e52565b91505061225f565b506000826001600160401b0381111561231057634e487b7160e01b600052604160045260246000fd5b60405190808252806020026020018201604052801561234957816020015b612336614a30565b81526020019060019003908161232e5790505b50905060005b84811015611c255760156000612366836001614df0565b815260208101919091526040016000206007015460ff161580156123b2575060156000612394836001614df0565b8152602081019190915260400160002060070154610100900460ff16155b156124a15760006015816123c7846001614df0565b815260208082019290925260409081016000208151610140810183528154815260018201546001600160a01b039081169482019490945260028201549281019290925260038101548316606083015260048101549092166080820152600582015460a0820152600682015460c0820152600782015460ff808216151560e08401526101009182900416151590820152600882015461012082015284519192509084908690811061248757634e487b7160e01b600052603260045260246000fd5b602090810291909101015261249d600185614df0565b9350505b806124ab81614e52565b91505061234f565b606060006124c060025490565b9050600080826001600160401b038111156124eb57634e487b7160e01b600052604160045260246000fd5b60405190808252806020026020018201604052801561252457816020015b612511614a30565b8152602001906001900390816125095790505b50905060005b838110156110b5576000601581612542846001614df0565b815260208082019290925260409081016000208151610140810183528154815260018201546001600160a01b039081169482019490945260028201549281019290925260038101548316606083015260048101549092166080820152600582015460a0820152600682015460c0820152600782015460ff808216151560e08401526101009182900416151590820152600882015461012082015284519192509084908690811061260257634e487b7160e01b600052603260045260246000fd5b6020908102919091010152612618600185614df0565b935050808061262690614e52565b91505061252a565b6060600061263b60045490565b905060008060005b838110156126a1576016600061265a836001614df0565b815260208101919091526040016000206006015460ff6101009091041615156001141561268f5761268c600184614df0565b92505b8061269981614e52565b915050612643565b506000826001600160401b038111156126ca57634e487b7160e01b600052604160045260246000fd5b60405190808252806020026020018201604052801561270357816020015b6126f06149ce565b8152602001906001900390816126e85790505b50905060005b84811015611c255760166000612720836001614df0565b815260208101919091526040016000206006015460ff61010090910416151560011415612824576000601681612757846001614df0565b815260208082019290925260409081016000208151610120810183528154815260018201546001600160a01b03908116948201949094526002820154928101929092526003810154909216606082015260048201546080820152600582015460a0820152600682015460ff808216151560c08401526101009182900416151560e083015260078301549082015284519192509084908690811061280a57634e487b7160e01b600052603260045260246000fd5b6020908102919091010152612820600185614df0565b9350505b8061282e81614e52565b915050612709565b6060600061284360045490565b905060008060005b8381101561289a578560166000612863846001614df0565b8152602001908152602001600020600701541061288857612885600184614df0565b92505b8061289281614e52565b91505061284b565b506000826001600160401b038111156128c357634e487b7160e01b600052604160045260246000fd5b6040519080825280602002602001820160405280156128fc57816020015b6128e96149ce565b8152602001906001900390816128e15790505b50905060005b84811015610de857866016600061291a846001614df0565b81526020019081526020016000206007015410612a0e576000601681612941846001614df0565b815260208082019290925260409081016000208151610120810183528154815260018201546001600160a01b03908116948201949094526002820154928101929092526003810154909216606082015260048201546080820152600582015460a0820152600682015460ff808216151560c08401526101009182900416151560e08301526007830154908201528451919250908490869081106129f457634e487b7160e01b600052603260045260246000fd5b6020908102919091010152612a0a600185614df0565b9350505b80612a1881614e52565b915050612902565b60026001541415612a435760405162461bcd60e51b8152600401610e1590614db9565b6002600155600081815260156020526040812060058101546006909101549091612a6d838361487d565b90506000612a7b8484614929565b90506000612a898284614df0565b6000878152601560205260409020600281015460079091015491925090610100900460ff1615612afb5760405162461bcd60e51b815260206004820181905260248201527f54686973206c697374696e6720686173206265656e2063616e63656c6c65642e6044820152606401610e15565b60008781526015602052604090206007015460ff1615612b695760405162461bcd60e51b815260206004820152602360248201527f54686973206c697374696e672068617320616c7265616479206265656e20736f60448201526236321760e91b6064820152608401610e15565b6000878152601560205260409020600101546001600160a01b03898116911614612bed5760405162461bcd60e51b815260206004820152602f60248201527f54686973206c697374696e672069732070617274206f6620612064696666657260448201526e32b73a1031b7b63632b1ba34b7b71760891b6064820152608401610e15565b6000878152601560205260409020600201548114612c5e5760405162461bcd60e51b815260206004820152602860248201527f54686973206c697374696e67206973206f66206120646966666572656e74207460448201526737b5b2b71024a21760c11b6064820152608401610e15565b612c688287614df0565b3414612cea5760405162461bcd60e51b8152602060048201526044602482018190527f456e73757265207468652076616c7565206f662074686973207472616e736163908201527f74696f6e206973203130322e3525206f6620746865206c697374696e6720707260648201526334b1b29760e11b608482015260a401610e15565b6000878152601560205260408082206003015490516001600160a01b039091169188156108fc02918991818181858888f19350505050158015612d31573d6000803e3d6000fd5b506040516323b872dd60e01b81526001600160a01b038916906323b872dd90612d6290309033908690600401614bbb565b600060405180830381600087803b158015612d7c57600080fd5b505af1158015612d90573d6000803e3d6000fd5b50505060008881526015602052604090206004810180546001600160a01b03191633179055600701805460ff1916600117905550612dd2600380546001019055565b6001600160a01b03881660009081526012602052604081208054889290612dfa908490614df0565b9250508190555085600d6000828254612e139190614df0565b9250508190555081600e6000828254612e2c9190614df0565b90915550506009548015612f125760005b600c54811015612ee0576000600c8281548110612e6a57634e487b7160e01b600052603260045260246000fd5b60009182526020808320909101546001600160a01b0316808352600f909152604090912054909150612e9e908890856131b8565b6001600160a01b03821660009081526010602052604081208054909190612ec6908490614df0565b90915550829150612ed8905081614e52565b915050612e3d565b5084600b6000828254612ef39190614df0565b9250508190555084600a6000828254612f0c9190614df0565b90915550505b6006546040516001600160a01b039091169085156108fc029086906000818181858888f19350505050158015612f4c573d6000803e3d6000fd5b5050600180555050505050505050565b60606000612f6960045490565b905060008060005b83811015612ff95760166000612f88836001614df0565b815260208101919091526040016000206006015460ff16158015612fd4575060166000612fb6836001614df0565b8152602081019190915260400160002060060154610100900460ff16155b15612fe757612fe4600184614df0565b92505b80612ff181614e52565b915050612f71565b506000826001600160401b0381111561302257634e487b7160e01b600052604160045260246000fd5b60405190808252806020026020018201604052801561305b57816020015b6130486149ce565b8152602001906001900390816130405790505b50905060005b84811015611c255760166000613078836001614df0565b815260208101919091526040016000206006015460ff161580156130c45750601660006130a6836001614df0565b8152602081019190915260400160002060060154610100900460ff16155b156131a65760006016816130d9846001614df0565b815260208082019290925260409081016000208151610120810183528154815260018201546001600160a01b03908116948201949094526002820154928101929092526003810154909216606082015260048201546080820152600582015460a0820152600682015460ff808216151560c08401526101009182900416151560e083015260078301549082015284519192509084908690811061318c57634e487b7160e01b600052603260045260246000fd5b60209081029190910101526131a2600185614df0565b9350505b806131b081614e52565b915050613061565b6000806131c58386614e08565b905060006131d38487614e6d565b905060006131e18587614e08565b905060006131ef8688614e6d565b9050856131fc8285614e1c565b6132069190614e08565b6132108385614e1c565b61321a8387614e1c565b886132258789614e1c565b61322f9190614e1c565b6132399190614df0565b6132439190614df0565b61324d9190614df0565b98975050505050505050565b6002600154141561327c5760405162461bcd60e51b8152600401610e1590614db9565b60026001556000818152601660205260408120600481015460059091015490916132a6838361487d565b905060006132b48484614929565b905060006132c28284614df0565b6000878152601660205260409020600281015460069091015491925090610100900460ff16156133345760405162461bcd60e51b815260206004820152601e60248201527f54686973206f6666657220686173206265656e2063616e63656c6c65642e00006044820152606401610e15565b60008781526016602052604090206006015460ff16156133a45760405162461bcd60e51b815260206004820152602560248201527f54686973206f666665722068617320616c7265616479206265656e2061636365604482015264383a32b21760d91b6064820152608401610e15565b6000878152601660205260409020600101546001600160a01b038981169116146134265760405162461bcd60e51b815260206004820152602d60248201527f54686973206f666665722069732070617274206f66206120646966666572656e60448201526c3a1031b7b63632b1ba34b7b71760991b6064820152608401610e15565b60008781526016602052604090206002015481146134955760405162461bcd60e51b815260206004820152602660248201527f54686973206f66666572206973206f66206120646966666572656e7420746f6b60448201526532b71024a21760d11b6064820152608401610e15565b600087815260166020526040908190206001015490516331a9108f60e11b8152600481018390526001600160a01b0390911690636352211e9060240160206040518083038186803b1580156134e957600080fd5b505afa1580156134fd573d6000803e3d6000fd5b505050506040513d601f19601f820116820180604052508101906135219190614ac5565b6001600160a01b0316336001600160a01b03161461359f5760405162461bcd60e51b815260206004820152603560248201527f596f7520646f206e6f74206f776e20746865206974656d207468617420746869604482015274399037b33332b91034b9903b30b634b2103337b91760591b6064820152608401610e15565b60008781526016602052604090206004015433906108fc906135c2908590614e3b565b6040518115909202916000818181858888f193505050501580156135ea573d6000803e3d6000fd5b50600087815260166020526040908190206003015490516323b872dd60e01b81526001600160a01b03808b16926323b872dd9261362f92339216908690600401614bbb565b600060405180830381600087803b15801561364957600080fd5b505af115801561365d573d6000803e3d6000fd5b5050506000888152601660209081526040808320600601805460ff191660011790556001600160a01b038c1683526012909152812080548993509091906136a5908490614df0565b9250508190555085600d60008282546136be9190614df0565b9250508190555081600e60008282546136d79190614df0565b90915550506009548015612f125760005b600c54811015612ee0576000600c828154811061371557634e487b7160e01b600052603260045260246000fd5b60009182526020808320909101546001600160a01b0316808352600f909152604090912054909150613749908890856131b8565b6001600160a01b03821660009081526010602052604081208054909190613771908490614df0565b90915550829150613783905081614e52565b9150506136e8565b6060600061379860045490565b905060008060005b83811015613804576001600160a01b038616601660006137c1846001614df0565b81526020810191909152604001600020600101546001600160a01b031614156137f2576137ef600184614df0565b92505b806137fc81614e52565b9150506137a0565b506000826001600160401b0381111561382d57634e487b7160e01b600052604160045260246000fd5b60405190808252806020026020018201604052801561386657816020015b6138536149ce565b81526020019060019003908161384b5790505b50905060005b84811015610de8576001600160a01b0387166016600061388d846001614df0565b81526020810191909152604001600020600101546001600160a01b0316141561398d5760006016816138c0846001614df0565b815260208082019290925260409081016000208151610120810183528154815260018201546001600160a01b03908116948201949094526002820154928101929092526003810154909216606082015260048201546080820152600582015460a0820152600682015460ff808216151560c08401526101009182900416151560e083015260078301549082015284519192509084908690811061397357634e487b7160e01b600052603260045260246000fd5b6020908102919091010152613989600185614df0565b9350505b8061399781614e52565b91505061386c565b606060006139ac60025490565b905060008060005b83811015613a0c57601560006139cb836001614df0565b815260208101919091526040016000206007015460ff161515600114156139fa576139f7600184614df0565b92505b80613a0481614e52565b9150506139b4565b506000826001600160401b03811115613a3557634e487b7160e01b600052604160045260246000fd5b604051908082528060200260200182016040528015613a6e57816020015b613a5b614a30565b815260200190600190039081613a535790505b50905060005b84811015611c255760156000613a8b836001614df0565b815260208101919091526040016000206007015460ff16151560011415613b96576000601581613abc846001614df0565b815260208082019290925260409081016000208151610140810183528154815260018201546001600160a01b039081169482019490945260028201549281019290925260038101548316606083015260048101549092166080820152600582015460a0820152600682015460c0820152600782015460ff808216151560e084015261010091829004161515908201526008820154610120820152845191925090849086908110613b7c57634e487b7160e01b600052603260045260246000fd5b6020908102919091010152613b92600185614df0565b9350505b80613ba081614e52565b915050613a74565b60606000613bb560045490565b905060008060005b83811015613c155760166000613bd4836001614df0565b815260208101919091526040016000206006015460ff16151560011415613c0357613c00600184614df0565b92505b80613c0d81614e52565b915050613bbd565b506000826001600160401b03811115613c3e57634e487b7160e01b600052604160045260246000fd5b604051908082528060200260200182016040528015613c7757816020015b613c646149ce565b815260200190600190039081613c5c5790505b50905060005b84811015611c255760166000613c94836001614df0565b815260208101919091526040016000206006015460ff16151560011415613d92576000601681613cc5846001614df0565b815260208082019290925260409081016000208151610120810183528154815260018201546001600160a01b03908116948201949094526002820154928101929092526003810154909216606082015260048201546080820152600582015460a0820152600682015460ff808216151560c08401526101009182900416151560e0830152600783015490820152845191925090849086908110613d7857634e487b7160e01b600052603260045260246000fd5b6020908102919091010152613d8e600185614df0565b9350505b80613d9c81614e52565b915050613c7d565b60026001541415613dc75760405162461bcd60e51b8152600401610e1590614db9565b6002600155683635c9adc5dea00000811015613e385760405162461bcd60e51b815260206004820152602a60248201527f596f75206d757374207374616b65206174206c6561737420312c30303020425560448201526921a5903a37b5b2b7399760b11b6064820152608401610e15565b6008546040516370a0823160e01b815233600482015282916001600160a01b0316906370a082319060240160206040518083038186803b158015613e7b57600080fd5b505afa158015613e8f573d6000803e3d6000fd5b505050506040513d601f19601f82011682018060405250810190613eb39190614b78565b1015613f195760405162461bcd60e51b815260206004820152602f60248201527f596f7572207374616b652063616e6e6f7420626520677265617465722074686160448201526e37103cb7bab9103130b630b731b29760891b6064820152608401610e15565b6008546040516323b872dd60e01b81526001600160a01b03909116906323b872dd90613f4d90339030908690600401614bbb565b602060405180830381600087803b158015613f6757600080fd5b505af1158015613f7b573d6000803e3d6000fd5b505050506040513d601f19601f82011682018060405250810190613f9f9190614b40565b50336000908152600f6020526040902054613fbb908290614df0565b336000908152600f602090815260408083209390935560139052205460ff1661403957600c805460018181019092557fdf6966c971051c3d54ec59162606531493a51404a002842f56009d7e5cf4a8c70180546001600160a01b031916339081179091556000908152601360205260409020805460ff191690911790555b3360009081526014602052604090205460ff1661406b57336000908152601460205260409020805460ff191660011790555b8060096000828254610f3b9190614df0565b6000546001600160a01b031633146140d75760405162461bcd60e51b815260206004820181905260248201527f4f776e61626c653a2063616c6c6572206973206e6f7420746865206f776e65726044820152606401610e15565b6001600160a01b03811661413c5760405162461bcd60e51b815260206004820152602660248201527f4f776e61626c653a206e6577206f776e657220697320746865207a65726f206160448201526564647265737360d01b6064820152608401610e15565b6141458161482d565b50565b6002600154141561416b5760405162461bcd60e51b8152600401610e1590614db9565b60026001556040516331a9108f60e11b8152600481018390526001600160a01b03841690636352211e9060240160206040518083038186803b1580156141b057600080fd5b505afa1580156141c4573d6000803e3d6000fd5b505050506040513d601f19601f820116820180604052508101906141e89190614ac5565b6001600160a01b0316336001600160a01b0316146142655760405162461bcd60e51b815260206004820152603460248201527f596f7520646f206e6f74206f776e20746865206974656d207468617420796f756044820152731030b932903a393cb4b733903a37903634b9ba1760611b6064820152608401610e15565b66038d7ea4c680008110156142c85760405162461bcd60e51b8152602060048201526024808201527f4c697374696e6773206d757374206265206174206c6561737420302e3030312060448201526322aa241760e11b6064820152608401610e15565b341561432d5760405162461bcd60e51b815260206004820152602e60248201527f446f206e6f742061747461636820657874726120657468657220746f2074686960448201526d39903a3930b739b0b1ba34b7b71760911b6064820152608401610e15565b61433b600280546001019055565b600061434660025490565b90506000614353836147c9565b90506000439050604051806101400160405280848152602001876001600160a01b03168152602001868152602001336001600160a01b0316815260200160006001600160a01b0316815260200185815260200183815260200160001515815260200160001515815260200182815250601560008581526020019081526020016000206000820151816000015560208201518160010160006101000a8154816001600160a01b0302191690836001600160a01b031602179055506040820151816002015560608201518160030160006101000a8154816001600160a01b0302191690836001600160a01b0316021790555060808201518160040160006101000a8154816001600160a01b0302191690836001600160a01b0316021790555060a0820151816005015560c0820151816006015560e08201518160070160006101000a81548160ff0219169083151502179055506101008201518160070160016101000a81548160ff0219169083151502179055506101208201518160080155905050856001600160a01b03166323b872dd3330886040518463ffffffff1660e01b815260040161450393929190614bbb565b600060405180830381600087803b15801561451d57600080fd5b505af1158015614531573d6000803e3d6000fd5b5050505084866001600160a01b0316847f58a09e68952c012de5afb608e379004bcd0873aaf7ba25e71e2007a34087cc1a33600089886000808a6040516114fe9796959493929190614bdf565b600c818154811061458e57600080fd5b6000918252602090912001546001600160a01b0316905081565b606060006145b560025490565b905060008060005b83811015614621576001600160a01b038616601560006145de846001614df0565b81526020810191909152604001600020600101546001600160a01b0316141561460f5761460c600184614df0565b92505b8061461981614e52565b9150506145bd565b506000826001600160401b0381111561464a57634e487b7160e01b600052604160045260246000fd5b60405190808252806020026020018201604052801561468357816020015b614670614a30565b8152602001906001900390816146685790505b50905060005b84811015610de8576001600160a01b038716601560006146aa846001614df0565b81526020810191909152604001600020600101546001600160a01b031614156147b75760006015816146dd846001614df0565b815260208082019290925260409081016000208151610140810183528154815260018201546001600160a01b039081169482019490945260028201549281019290925260038101548316606083015260048101549092166080820152600582015460a0820152600682015460c0820152600782015460ff808216151560e08401526101009182900416151590820152600882015461012082015284519192509084908690811061479d57634e487b7160e01b600052603260045260246000fd5b60209081029190910101526147b3600185614df0565b9350505b806147c181614e52565b915050614689565b6000670de0b6b3a764000082106147e257506012919050565b67016345785d8a000082106147f957506011919050565b662386f26fc10000821061480f57506010919050565b66038d7ea4c6800082106148255750600f919050565b506012919050565b600080546001600160a01b038381166001600160a01b0319831681178455604051919092169283917f8be0079c531659141344cd1fd0a4f28419497f9722a3daafe3b4186f6b6457e09190a35050565b600081600f14156148b05761489966038d7ea4c6800084614e08565b6148a9906512309ce54000614e1c565b9050610bce565b81601014156148da576148ca662386f26fc1000084614e08565b6148a99065b5e620f48000614e1c565b8160111415614906576148f567016345785d8a000084614e08565b6148a99066071afd498d0000614e1c565b614918670de0b6b3a764000084614e08565b6148a99066470de4df820000614e1c565b600081600f14156149555761494566038d7ea4c6800084614e08565b6148a99065048c27395000614e1c565b816010141561497f5761496f662386f26fc1000084614e08565b6148a990652d79883d2000614e1c565b81601114156149ab5761499a67016345785d8a000084614e08565b6148a9906601c6bf52634000614e1c565b6149bd670de0b6b3a764000084614e08565b6148a9906611c37937e08000614e1c565b6040518061012001604052806000815260200160006001600160a01b031681526020016000815260200160006001600160a01b031681526020016000815260200160008152602001600015158152602001600015158152602001600081525090565b6040518061014001604052806000815260200160006001600160a01b031681526020016000815260200160006001600160a01b0316815260200160006001600160a01b031681526020016000815260200160008152602001600015158152602001600015158152602001600081525090565b600060208284031215614ab3578081fd5b8135614abe81614ead565b9392505050565b600060208284031215614ad6578081fd5b8151614abe81614ead565b60008060408385031215614af3578081fd5b8235614afe81614ead565b946020939093013593505050565b600080600060608486031215614b20578081fd5b8335614b2b81614ead565b95602085013595506040909401359392505050565b600060208284031215614b51578081fd5b81518015158114614abe578182fd5b600060208284031215614b71578081fd5b5035919050565b600060208284031215614b89578081fd5b5051919050565b600080600060608486031215614ba4578283fd5b505081359360208301359350604090920135919050565b6001600160a01b039384168152919092166020820152604081019190915260600190565b6001600160a01b0397881681529590961660208601526040850193909352606084019190915215156080830152151560a082015260c081019190915260e00190565b6001600160a01b0396909616865260208601949094526040850192909252151560608401521515608083015260a082015260c00190565b602080825282518282018190526000919060409081850190868401855b82811015614d0257815180518552868101516001600160a01b039081168887015286820151878701526060808301518216908701526080808301519091169086015260a0808201519086015260c0808201519086015260e0808201511515908601526101008082015115159086015261012090810151908501526101409093019290850190600101614c75565b5091979650505050505050565b602080825282518282018190526000919060409081850190868401855b82811015614d0257815180518552868101516001600160a01b0316878601528581015186860152606080820151614d6d828801826001600160a01b03169052565b50506080818101519086015260a0808201519086015260c08082015115159086015260e08082015115159086015261010090810151908501526101209093019290850190600101614d2c565b6020808252601f908201527f5265656e7472616e637947756172643a207265656e7472616e742063616c6c00604082015260600190565b60008219821115614e0357614e03614e81565b500190565b600082614e1757614e17614e97565b500490565b6000816000190483118215151615614e3657614e36614e81565b500290565b600082821015614e4d57614e4d614e81565b500390565b6000600019821415614e6657614e66614e81565b5060010190565b600082614e7c57614e7c614e97565b500690565b634e487b7160e01b600052601160045260246000fd5b634e487b7160e01b600052601260045260246000fd5b6001600160a01b038116811461414557600080fdfea26469706673582212206544eb59b8c97e3a54e319d4090c50e71aef57661c918dbb7c026f7bfc11cbb064736f6c63430008040033",
  "linkReferences": {},
  "deployedLinkReferences": {}
}